:020000040800F2
:1000000028BD0020450100088D3D00082B3C00085C
:10001000893D0008C721000899440008000000003D
:10002000000000000000000000000000BD3D0008CE
:10003000CB21000800000000913D0008BF3D0008F2
:100040005F0100085F0100085F0100085F01000810
:100050005F0100085F0100085F0100085F01000800
:100060005F0100085F0100085F0100085F010008F0
:100070005F0100085F0100085F0100085F010008E0
:100080005F0100085F0100085F0100085F010008D0
:100090005F0100085F0100085F0100085F010008C0
:1000A0005F0100085F0100085F0100085F010008B0
:1000B0005F010008313E00085F0100085F01000891
:1000C0005F0100085F0100085F0100085F01000890
:1000D0005F010008894400085F0100085F01000813
:1000E0005F0100085F0100085F0100085F01000870
:1000F0005F0100085F0100085F0100085F01000860
:100100005F0100085F0100085F0100085F0100084F
:100110005F0100085F0100085F0100085F0100083F
:100120005F0100085F0100085F0100085F0100082F
:10013000DFF80CD000F02EFD0048004731550008D4
:1001400028BD00200648804706480047FEE7FEE736
:10015000FEE7FEE7FEE7FEE7FEE7FEE7FEE7FEE777
:100160002D3E000831010008202A04DB203A21FA44
:1001700002F00021704721FA02F3D040C2F12002C0
:10018000914008431946704740EA01039B0703D09A
:1001900009E008C9121F08C0042AFAD203E011F8C6
:1001A000013B00F8013B521EF9D27047D2B201E088
:1001B00000F8012B491EFBD270470022F6E710B56C
:1001C00013460A4604461946FFF7F0FF204610BDC5
:1001D000F0B480EA0102D40F4200B2EB410F02D228
:1001E0000246084611464A0042D0C30DDDB2C1F3B3
:1001F000C752AD1A202D35DAC1F3160141F40002C1
:1002000004B15242C5F1200602FA06F12A41104417
:10021000B3EBD05F23D0C4B1012DA0EBC35009DCF8
:10022000F0BC4FF0004202EAC352DBB200F500001E
:1002300000F0A3BA400000F1807000EBC350A0F1C1
:10024000807040EAD170490009E0490841EAC07174
:10025000A0EBC35000F50000400800EBC350F0BC19
:1002600000F082BA6142012202EB4101001BF6E775
:10027000F0BC704781F00041AAE780F00040A7E79A
:1002800080EA010210B502F00043400022D04A008B
:100290001FD0010E01EB1261C0F35600C2F35602EB
:1002A00040F4000042F40002A0FB022000047F3969
:1002B000140400D0401C50EA124001D44000491EF2
:1002C000C2B20C0604EBD010401C4008802A02D0B9
:1002D00003E0002010BD20F00100002900DA00201A
:1002E000184310BD30B480EA010202F0004530F03E
:1002F000004221F0004013D090B1C30DD40DC2F3E1
:100300001601C0F31600E41A41F4000140F40002A3
:100310007D34914201D3641C00E04900002C02DAD4
:1003200030BC002070474FF400000023914201D3FD
:10033000891A034340084FEA4101F7D151B1914274
:1003400002D14FF0004105E002D24FF0010101E07F
:100350006FF0010103EBC450284430BC00F004BA34
:100360002DE9FE4F804681EA0300C00F0C46009045
:1003700021F0004123F00045B8EB0200A94105D26D
:100380004046214690461C460B46024623F000405C
:10039000104347D0270DC7F30A00C3F30A51029058
:1003A000401A019040286BDAC3F3130040F4801B1D
:1003B0000098924620B10023D2EB030A63EB0B0BAB
:1003C00001985946C0F14002504600F0ACF906468B
:1003D0000D4650465946019A00F0B4F910EB08005A
:1003E0006141002487EA115284EAE7731A4340D03E
:1003F000009A62B3019A012A4FEA075215DC001BEA
:1004000061EB02014FF0004202EA0752CDE90042DF
:10041000001C41F5801132462B4600F01AFA03B059
:10042000BDE8F08F40462146F9E7001B61EB020171
:10043000001C41F5801300185B412018A2F500173D
:1004400047EB030140EAD570B6196D4111E06D0824
:100450004FEA360645EAC0754FEA0752001B61EBCA
:100460000201001C41F5801149084FEA30000019D3
:10047000514132462B4603B0BDE8F04F00F0DAB9E7
:100480000098012240000023D0EB020263EBE073EE
:10049000009821464FEAE074B8EB000061EB0401DC
:1004A000E9E783F000435BE781F0004158E72DE97D
:1004B000F04D81EA030404F0004B21F0004514469E
:1004C0004FF0000A23F0004150EA050220D054EA20
:1004D00001021DD0C5F30A570246C5F31303C1F349
:1004E0001300C1F30A5640F4801543F48013A7EBC0
:1004F0000608101BD64608F2FD3873EB050002D340
:1005000008F1010801E092185B41B8F1000F03DA2D
:1005100000200146BDE8F08D00204FF48011064612
:1005200084460EE0171B73EB050705D3121B63EB24
:10053000050306434CEA010C49084FEA30009218C3
:100540005B4150EA0107EDD152EA030012D082EA82
:10055000040083EA0501084305D0101BAB4106D215
:100560000122002306E000224FF0004302E06FF07A
:10057000010253101AEB06004CEB085110EB0A0075
:1005800041EB0B01BDE8F04D00F054B9002801DB50
:10059000C0F10040002901DBC1F10041814201D2DC
:1005A0000120704700207047002801DBC0F10040A7
:1005B000002901DBC1F10041814201D901207047CE
:1005C00000207047C10F80EAE0700844CA079623F4
:1005D000002100F0D2B896230022114600F0CDB8D9
:1005E00000F0004220F00040C10DC0F3160040F4BE
:1005F00000007F2901DA00207047962903DCC1F151
:100600009601C84001E096398840002AF4D0404263
:10061000704700F0004230F000400AD0C10D01F5F3
:100620006071C0F3160042EA0151C208400711434D
:10063000704700200146704701F0004330B421F0BC
:10064000004150EA010206D00A0DA2F56072C1F322
:100650001301002A02DC30BC00207047440F44EA3A
:10066000C104C100E01830BC00EBC25000F07CB8FF
:10067000002801DBC0F10040002901DBC1F100418D
:1006800081427047002801DBC0F10040002901DBF6
:10069000C1F100418842704730B50B460146002049
:1006A0002022012409E021FA02F59D4205D303FA34
:1006B00002F5491B04FA02F52844151EA2F10102B5
:1006C000F1DC30BD2DE9F05F0546002092469B46E7
:1006D00088460646814640241BE028464146474658
:1006E0002246FFF741FD53465A46C01A914110D3A6
:1006F00011461846224600F016F82D1A67EB01083D
:100700004F4622460120002100F00DF817EB0009AA
:100710004E41201EA4F10104DFDC484631462A4642
:100720004346BDE8F09F202A04DB203A00FA02F19C
:10073000002070479140C2F1200320FA03F31943CF
:1007400090407047202A06DBCB17203A41FA02F08E
:1007500043EAE07306E041FA02F3D040C2F120021E
:1007600091400843194670470029A8BF7047401CB4
:10077000490008BF20F00100704710B4B0FA80FCB7
:1007800000FA0CF050EA010404BF10BC704749B1F4
:10079000CCF1200421FA04F411FA0CF118BF012164
:1007A00021430843A3EB0C01CB1D4FEA00614FEA44
:1007B000102042BF002010BC704700EBC350104413
:1007C0000029A4BF10BC7047401C490008BF20F09E
:1007D000010010BC7047F0B4002802DCF0BC00201F
:1007E0007047C0F3C751C0F3160040F40000CA07B9
:1007F00001D14000491E3F2202EB61050022114653
:100800004FF4000626FA01F31344D418844201D8A9
:10081000001B1A464000491C1729F3DD5100814294
:1008200002D24FF0FF3100E0002102EBC550F0BCD6
:10083000FFF79ABF10B5141E73F1000408DA401CCC
:1008400041F1000192185B411A4301D120F00100EF
:1008500010BD2DE9F04D92469B4611B1B1FA81F2DF
:1008600002E0B0FA80F220329046FFF75CFF0446C7
:100870000F4640EA0A0041EA0B0153465A46084334
:1008800013D0114653EA010019D0C8F14002504676
:10089000FFF76AFC05460E46504659464246FFF7AA
:1008A00042FF084305D0012004E020463946BDE858
:1008B000F08D0020054346EAE0762C4337430A9842
:1008C0006305E40AA0EB08000022FD0A44EA47544D
:1008D0000A3002D500200146E9E7010510196941F7
:1008E000DDE9084500196941BDE8F04DA2E72DE9B1
:1008F000FE4F81EA030404F0004421F0004100941B
:100900004FF0000B23F0004350EA01045ED052EA9E
:1009100003045BD0C3F30A54C1F30A552C44A4F278
:10092000F3340194A0FB0254C1F3130141F480118C
:10093000C3F3130343F4801301FB024400FB034E93
:10094000840A970A44EA815447EA8357A4FB07685C
:1009500002958D0A05FB07854FEA932C04FB0C5486
:100960002705029D4FEA065847EA1637B5EB0805FA
:100970006EEB070C870E920E47EA811742EA83124C
:10098000A7FB0201B6EB0B0164EB00042B0D43EA5D
:100990000C335E1844EB1C50DA465146E7FB02016B
:1009A000C5F313044FEA0B3343EA14534FEA0432FE
:1009B000019C43EA0603A4F10C040294009CCDE9D7
:1009C00000B4FFF746FF03B0BDE8F08F00200146FA
:1009D000F9E770B521F0004303430CD0C1F30A5589
:1009E0000024D5EB040564EB0403D617AD1AB3411C
:1009F00002DB0020014670BD201841EB025170BDA2
:100A00002DE9F04D00231A461B1A8A4103DB002012
:100A10000146BDE8F08DC1F30A52C1F3130141F460
:100A200080154FF0000BD10702D100186D41521E06
:100A30000027044640F2FF11384601EB620A3E46A9
:100A40008046024600204FF48011FFF78DFBC2194B
:100A50007141BB1846EB0100B4EB030C75EB000CC5
:100A600004D3E41A65EB000517460E46241908F175
:100A700001006D4180463428E3DDF91946EB06009C
:100A8000091BA84103D24FF0FF32134601E00022B8
:100A900013461BEB070046EB0A51BDE8F04DFFF78C
:100AA000C9BE0EB5C10F80EAE0700844CA07002134
:100AB00040F233438DE80E000A460B46FFF7C9FEAD
:100AC00003B000BD70B5C1F30A5201F00045002427
:100AD000C1F3130140F2FF3341F480119A4201DA6D
:100AE000002070BD40F233439A42A2F2334203DC4D
:100AF0005242FFF739FB00E090402C43F1D04042D6
:100B000070BDC1F30A52C1F3130140F2FF3341F447
:100B100080119A4202DA00200146704740F23343C6
:100B20009A42A2F2334202DC5242FFF71DBBFFF7AA
:100B3000FABD000030B5041E71F1000404DB4FF073
:100B40000044404264EB0101141E73F1000405DB14
:100B50001C464FF00043524263EB04038B4208BF34
:100B6000824230BD30B5041E71F1000404DB4FF049
:100B70000044404264EB0101141E73F1000405DBE4
:100B80001C464FF00043524263EB0403994208BFF6
:100B9000904230BD064C074D06E0E06840F001038E
:100BA00094E8070098471034AC42F6D3FFF7C4FA34
:100BB00060FD050880FD0508B0B5E1B14FF0000CFF
:100BC00002EB4C0432F81C300CF1020C64888C45AA
:100BD00023F0030324F0030450F803E00559C55043
:100BE00040F804E003440444D3F804E065685D6021
:100BF000C4F804E0E4D3B0BD2DE9F047B0F800A09C
:100C0000984691460C460746012A0ED1BAF1000FCC
:100C100042D0261D554600BF31684FF00040FFF717
:100C200029FB46F8080B013DF6D1BAF1FF0F0CDDA8
:100C3000BAF5806F13DBBAF5805F27D0BAF5006F85
:100C400014D0BAF5806F1CD026E0BAF13F0F12DC49
:100C5000BAF1100F15D0BAF1200F07D01CE0BAF589
:100C6000807F03D0BAF5007F10D015E038462146CA
:100C700000F084F910E0BAF1400F07D0BAF1800F0C
:100C80000AD13846214600F037F805E07A68204658
:100C90005146012300F054FEB8F1000F04D0BA68A9
:100CA000B9892046FFF788FFB9F1010F22D15046DC
:100CB000FFF791FC01464FF07E50FFF713FBBAF1AE
:100CC000000F08BFBDE8F087064600BFD4E9001753
:100CD0003046FFF7D5FA206030463946FFF7D0FAA4
:100CE00001464FF00040FFF7C5FA60600834BAF1E2
:100CF000010AEBD1BDE8F0872DE9F04F9BB00288E7
:100D0000059101EB82011491019040680021B1EB43
:100D1000D20F04904FEA5200029000F01D81D008DB
:100D2000029A05994FF0000A404201EB82010391BB
:100D3000149901EB820113911290059D55F80A0058
:100D40000A90149A52F80A1014460991FFF740FAD3
:100D5000139B05EB0A0703EB0A0153F80AB04A6834
:100D6000119108928A68C9681A921791DDF80C905F
:100D700009EB0A0659F80A8071681591B168169155
:100D8000F168189104EB0A01CDF82CB0CDF8308051
:100D900019914A688C68C96845F80A007868BD6886
:100DA00007920E9410910690F8680D950F90FFF73A
:100DB0000FFAF86028462146FFF70AFA079C069DBD
:100DC000B86028462146FFF703FA78604046594646
:100DD000FFF7FEF949F80A00DDE91710FFF7F8F907
:100DE000F06016981A99FFF7F3F9DDF82080B060EB
:100DF00015984146FFF7ECF97060DDE90910FFF73F
:100E000039FA074628462146FFF734FA049E04467D
:100E1000384656F80A904946FFF732FA06EB0A0BB5
:100E200005462046DBF804603146FFF729FA014603
:100E30002846FFF7CDF9149941F80A0020464946A3
:100E4000FFF71EFA044638463146FFF719FA014605
:100E50002046FFF70FFA19994860DDE90B01FFF70B
:100E600009FA159904464046FFF704FA054620465C
:100E70003146FFF705FA074628464946FFF700FACC
:100E800001463846FFF7F6F9139941F80A0028465B
:100E90003146FFF7F5F9054620464946FFF7F0F9D8
:100EA0002946FFF795F9DDF84490C9F80400DDE91B
:100EB0000D01FFF7DFF90646DDE90F01FFF7DAF96B
:100EC000DBE9028B07464146FFF7DAF90446304674
:100ED0005946FFF7D5F901462046FFF7CBF9199D92
:100EE0004146E8603046FFF7CBF90446384659469C
:100EF000FFF7C6F901462046FFF76AF9A8601A987D
:100F00001699FFF7B7F90446DDE91701FFF7B2F9C3
:100F100059460646FFF7B4F9074620464146FFF713
:100F2000AFF93946FFF754F9C9F80C002046594685
:100F30004F46FFF7A5F9044630464146FFF7A0F9B2
:100F400001462046FFF796F9C9F8080012980AF101
:100F5000100A01307FF4F0AE029C0598049A022337
:100F6000214600F0EDFC01982146022342681498C6
:100F70001BB0BDE8F04F00F0E3BC00002DE9F04FDE
:100F8000B3B0834600880C4662684FEA500A2D9041
:100F9000206801EB8A0858F82A102E912C902B9289
:100FA000FFF716F954F82A1032903091FFF710F934
:100FB00008EB8A0555F82A102F91FFF709F905EB80
:100FC0008A01D5F80490D8F8047005914E68DBF8D2
:100FD0000410CDF810B0206006914946DDF8ACB0A1
:100FE0005846FFF7F5F839463190FFF7F1F83146EA
:100FF000FFF7EEF860602C982E99FFF73BF9394621
:101000002E90FFF7E5F83146FFF734F944F82A004F
:10101000584649462394FFF72DF9DDF8C090044661
:101020004946FFF727F9DDF8BCB05946FFF7D0F87D
:10103000C8F8040032984946FFF71CF95946FFF7F3
:1010400019F9CDF80C8048F82A0039463198FFF795
:1010500011F93146FFF70EF968602E983946FFF70F
:1010600009F93146FFF7B4F845F82A002046494609
:101070000295FFF7ADF85946FFF7FCF805990027F0
:1010800000234FEA8A0548606FF0030000EB8A01F5
:101090002B916FF0070101EB8A0230926FF0010291
:1010A0002D9E31934FEACA0302EB9602A7EB520240
:1010B0002E9200EBCA022A9201EBCA02329201EB95
:1010C0000A122F9200EB0A1229920AEB4A0201EB54
:1010D000820100EB8200970028912790B008002140
:1010E00001902D9100212C9187E100BFCDE915657C
:1010F000DDF88C902A9809EB00060C962B9809EBEA
:10110000000A279809EB000112910968299809EB58
:10111000000507F118001E95139002F110000F90C2
:1011200004F1080014970790DAF800000A90109173
:101130000D92FFF74DF8316811902691FFF748F8AE
:1011400029682591FFF744F82F9F59F807200B9243
:101150002F97329E59F8062024923296289959F8F2
:1011600001100991309D59F80530CAF80000184661
:1011700008933095FFF72CF859F806100E90FFF7FA
:1011800027F859F80710FFF723F849F805000798E2
:10119000209DD0F800A028465146FFF771F8E4687A
:1011A000229F064638462146FFF76AF80146304638
:1011B000FFF70EF8C8F8000038465146FFF760F810
:1011C000064628462146FFF75BF801463046FFF702
:1011D00051F8CBF80000DDE90801FFF74BF820904B
:1011E00005460A981099FFF745F822900646DDE972
:1011F0002510FFF73FF8014610902846FEF7E8FF5C
:10120000DDF89080054630464146FFF733F8DDF8BB
:101210002CB05946FEF7DCFF21460646FFF730F8B2
:10122000074628465146FFF72BF801463846FFF798
:1012300021F80C99086028462146FFF721F804465A
:1012400030465146FFF71CF82146FEF7C1FF3299A0
:101250001F9F49F801000F98D0F800A0384651466A
:10126000FFF70EF805460D98219C46692046314649
:10127000FFF706F801462846FEF7AAFF189908600E
:1012800020465146FEF7FCFF054638463146FEF73C
:10129000F7FF01462846FEF7EDFF179908600E9804
:1012A0004146FEF7E7FF5946FEF7E4FF0546119871
:1012B0002699FEF7DFFF2599FEF7DCFF514607462A
:1012C000FEF7DEFF01464FF00040FEF7D3FF044675
:1012D00028463146FEF7D4FF01462046FEF7CAFFF6
:1012E0001299086028465146FEF7CAFF0446384660
:1012F0003146FEF7C5FF2146FEF7BCFFDDF8A0A092
:10130000159C49F80A001398D0F800802046414601
:10131000FEF7B6FF06461498169FC569384629465B
:10132000FEF7AEFF01463046FEF752FF19990860FE
:1013300038464146FEF7A4FF064620462946FEF7FA
:101340009FFF01463046FEF795FF1A9908601098F6
:101350002099FEF78FFF249906465846FEF78AFF2C
:101360002299FEF787FF29460746FEF789FF0446C4
:1013700030464146FEF784FF01462046FEF77AFFDD
:101380001E99086030462946FEF77AFF0446384623
:101390004146FEF775FF2146FEF71AFF2F9949F8DF
:1013A00001002B9808382B903098083830902E98F0
:1013B00001302E902A9808382A90329808383290B6
:1013C0005046AAF108002890279808382790084628
:1013D000A1F108002F9029980838299031980830F9
:1013E00031902D9810302D902C9818302C901B9FF8
:1013F0001D9B1C9D083708330835239C319904EB4D
:10140000010AE618DAF80800DAF80C9022901D9329
:10141000159656F8081F2091FEF7DAFE04EB050832
:1014200026901C95CDF8508058F8081F2591FEF79E
:10143000CFFE1B972744169757F8081F2491FEF7F5
:10144000C7FE199757F8041FC3465BF8045F1E9147
:10145000189656F8044FCAF80800484621461796D1
:10146000FEF7B6FEDBF800102190FEF7B1FE3968FA
:101470001A97FEF7ADFECAF80C0022982099FEF7E5
:10148000F9FE29460646AA46FEF7A2FE1E9D2946FB
:10149000FEF7F0FE209048462146FEF7EBFE259F22
:1014A00004463946FEF7E6FEDDF890904946FEF721
:1014B0008FFE229039462698FEF7DCFE4946FEF75D
:1014C000D9FE1F9051462198FEF7D4FE2946FEF71B
:1014D000D1FE219030465146FEF7CCFE2946FEF75C
:1014E00077FE064620463946FEF772FE4946FEF76D
:1014F000C1FE054606982C9947182D994218319936
:1015000044182E9800287FF4F1ADD4E90294924655
:10151000329449462298FEF7B3FEDDF880B080464B
:1015200021465846FEF7ACFE01464046FEF7A2FEB5
:10153000DDF850804946C8F80C005846FEF7A0FE7A
:10154000044622983299FEF79BFE01462046FEF79C
:101550003FFEC8F80800DAE9048ADDF884B058468E
:101560004146FEF78DFE1F9C814651462046FEF700
:1015700087FE01464846FEF77DFEDDF85490414661
:10158000C9F80C002046FEF77BFE804658465146BF
:10159000FEF776FE01464046FEF71AFEC9F808003F
:1015A0002846D7E906482146FEF76AFE0746304638
:1015B0004146FEF765FE01463846FEF75BFE169F84
:1015C0002146F8603046FEF75BFE04462846414659
:1015D000FEF756FE01462046FEF7FAFD019DB86073
:1015E0002398069A0423294600F0AAF9049C03983C
:1015F00029460423626800F0A3F96268029829462C
:10160000042300F09DF9626805982946042333B04D
:10161000BDE8F04F00F094B92DE9F04381B00546E4
:10162000002090460C46B0EB920F4CD04FEA980049
:10163000C0F10009D5E900070146FEF721FE064684
:1016400038463946FEF71CFE01463046FEF7C0FD1F
:1016500004F0CDFD2060D5E902060146FEF710FE3C
:10166000074630463146FEF70BFE01463846FEF788
:10167000AFFD04F0BCFD6060D5E904060146FEF74D
:10168000FFFD074630463146FEF7FAFD0146384673
:10169000FEF79EFD04F0ABFDA060D5E9060601460D
:1016A000FEF7EEFD074630463146FEF7E9FD0146FE
:1016B0003846FEF78DFD04F09AFDE06010342035C9
:1016C00019F10109B6D118F0030016D0474200BF46
:1016D000D5E900060146FEF7D3FD80463046314687
:1016E000FEF7CEFD01464046FEF772FD04F07FFD99
:1016F00044F8040B08350137EAD101B0BDE8F083A6
:101700002DE9F04F89B0834691464A1E4FF0000AFA
:1017100098460F465BF8046BBAEB920F62D00290CA
:1017200090080121CDE9047903924FF0000A0425C5
:10173000CDF8188061F30102404201920890DBE984
:101740000087DBE90240079030464146FEF71EFF66
:10175000814630464146FEF719FF002818BFA5F123
:10176000030A3946B9F1000F18BF46463046FEF766
:101770000DFF00283046394618BFA5F1020AFEF7D2
:1017800005FF002818BF3E4630462146FEF7FEFE04
:1017900000283046214618BFA5F1010AFEF7F6FEE3
:1017A000002818BF2646079C30462146FEF7EEFE6D
:1017B00000283046214618BFAA46FEF7E7FE00285B
:1017C000089818BF26460BF1100B04350130B5D12F
:1017D000DDE901100DF10C09DDF8188099E88402AB
:1017E00000EB810B12F0030013D045425BF8044B71
:1017F00030462146FEF7CAFE00283046214618BF73
:1018000007EB050AFEF7C2FE002818BF2646013581
:10181000ECD1C9F80060C8F800A009B0BDE8F08FAD
:101820002DE9F04F89B0834691464A1E4FF0000AD9
:1018300098460F465BF8046BBAEB920F62D00290A9
:1018400090080121CDE9047903924FF0000A0425A4
:10185000CDF8188061F30102404201920890DBE963
:101860000087DBE90240079030464146FEF79CFEC8
:10187000814630464146FEF797FE002818BFA5F185
:10188000030A3946B9F1000F18BF46463046FEF745
:101890008BFE00283046394618BFA5F1020AFEF734
:1018A00083FE002818BF3E4630462146FEF77CFEE8
:1018B00000283046214618BFA5F1010AFEF774FE44
:1018C000002818BF2646079C30462146FEF76CFECE
:1018D00000283046214618BFAA46FEF765FE0028BC
:1018E000089818BF26460BF1100B04350130B5D10E
:1018F000DDE901100DF10C09DDF8188099E884028A
:1019000000EB810B12F0030013D045425BF8044B4F
:1019100030462146FEF748FE00283046214618BFD3
:1019200007EB050AFEF740FE002818BF26460135E2
:10193000ECD1C9F80060C8F800A009B0BDE8F08F8C
:101940002DE9F04FC3B00C460392CDE90103189185
:10195000E208DDF804B0E600D5000592A5EBD4005E
:101960002095C000429010011D905001199002EB8B
:10197000420002EB8202C300070100201C93D30047
:10198000CDE91A64CDE91E734190DDF86490DDE97C
:101990001C785BF805005BF8031035903691FEF774
:1019A00017FCDDF808A104462F905BF807005BF8F0
:1019B0000A1034903391FEF70BFC01462D9020461F
:1019C000FEF706FC06465BF80910DBF800003891CC
:1019D0003790FEF7FDFB1E9904462B905BF808003C
:1019E0005BF801103D903C91FEF7F2FB01462A9016
:1019F0002046FEF7EDFB31460446FEF7E9FBCBF847
:101A0000000020463146FEF735FC4BF809002098CF
:101A1000584442683E901F98584431924168409023
:101A200010463091FEF7D4FB0BEB0A0104462690DA
:101A30000BEB07003F9040683B9149682E902C913A
:101A4000FEF7C6FB824620465146FEF7C1FB0BEB74
:101A500009040746DBF804000BEB080661682796CB
:101A600039903A91FEF7B4FB80461E98726858444C
:101A700029924168289010463291FEF7A9FB06464C
:101A800040463146FEF7A4FB39468146FEF7A0FBEF
:101A9000CBF8040048463946FEF7ECFB6060269818
:101AA0005146FEF7E7FB0746DDE92A10FEF7E2FBA9
:101AB00039460446FEF78CFB1D994BF80100204681
:101AC0003946FEF7D7FB1E994BF801002F982D9948
:101AD000FEF7D0FB044640463146FEF7CBFB2146DD
:101AE0000546FEF7C7FB2799486020462946FEF7C2
:101AF0006FFB28994860DDE93501FEF7BBFB3690A6
:101B00000446DDE93310FEF7B5FB0146359020466B
:101B1000FEF7B0FB40F2F341C3F63571FEF7B0FBC0
:101B20000446DDE93010FEF7A5FB054634902E98FB
:101B30002C99FEF79FFB814628464946FEF748FB55
:101B400040F2F341C3F63571FEF79AFB0546DDE935
:101B50003701FEF78FFB21460646FEF739FB0746A5
:101B600029983299FEF786FB29468046FEF730FB1E
:101B7000824638465146FEF72BFB20994BF8010070
:101B8000384640F2F3475146C3F63577FEF772FB0D
:101B900042994BF8010030462146FEF76BFB0446A4
:101BA00040462946FEF766FB054620462946FEF7D5
:101BB0000FFB1F994BF8010020462946FEF75AFB00
:101BC0001C994BF80100DDE93510FEF701FB3946A1
:101BD000FEF756FB804634984946FEF74BFB3946E4
:101BE000FEF74EFB8146DDE93C10FEF743FB414624
:101BF0000646FEF7EDFA0746DDE93901FEF73AFB46
:101C000049460446FEF7E4FA39460546FEF732FB3C
:101C10003E99486038462946FEF7DAFA3B99486013
:101C200030464146FEF726FB054620464946FEF76C
:101C300021FB29460446FEF71DFB409948602846D3
:101C40002146FEF7C5FADDE91F35DDE91A643F9A42
:101C5000189950604198B34420448842FFF494AEF0
:101C6000402CC0F0AD820298DDF804C000244FF093
:101C7000010B80B204900598C0EBC0004FEAC00889
:101C8000CDF824800498039EE146CDF81CB0CDF831
:101C90001890044456F83400C4EBC40E04EB840CD2
:101CA000620104EB44010894179056F83E00169028
:101CB00056F83C001590B0580432B258149056F8BB
:101CC0003100119213902001021D3758B058E200E4
:101CD000043212974F461090B0580A010F90B05836
:101CE0000E904FEACE00043030580D90101D305841
:101CF0000C904FEACC00043030580B90C8000430F0
:101D000030580A90FA187819CDF800B142974190EE
:101D10008068916891463E9235903691FEF758FA68
:101D200004462A9042981C9900EB010B4298DBF87C
:101D30000820CDF8FCB000EB080ADAF808101046CD
:101D40003392CDF8F4A03491FEF742FA01462B907D
:101D50002046FEF73DFA0746239042981999084419
:101D6000816821904298826842983891D0F80C801E
:101D700010463792CDF8E880FEF72AFA05462990FA
:101D80001D9842990C1842981E99A26827944618EB
:101D9000B16810463C922C963B91FEF719FA014629
:101DA00028902846FEF714FA39462290FEF710FADA
:101DB000429988604198D9F80C10C0682F913090F2
:101DC000FEF706FA0546DBF80C00DAF80C102E9048
:101DD0002D91FEF7FDF9014626902846AA46FEF70A
:101DE000F7F9DDF8849005464046D9F80C10399192
:101DF000FEF7EEF9F16807462590E06832903191E0
:101E0000FEF7E6F9014624903846FEF7E1F9294647
:101E10000746FEF7DDF94299C860DDE92201FEF7C9
:101E200029FA044638462946FEF724FA149E8346CA
:101E300059463046FEF724FA119D074621462846AA
:101E4000FEF71EFA01463846FEF714FAC9F80C00F0
:101E5000304621464F46FEF713FA044628465946B7
:101E6000FEF70EFA01462046FEF7B2F9C9F808005F
:101E7000DDE92A01FEF7FEF9269905462B9050462A
:101E8000FEF7F8F98146DDE92810FEF7F3F9494637
:101E90008046FEF79DF90446DDE92410FEF7EAF9D5
:101EA00029468246FEF7E6F9129F06463146384635
:101EB000FEF7E6F9DDF840B0054621465846FEF744
:101EC000DFF901462846FEF7D5F9279D2146E8604F
:101ED0003846FEF7D5F9044658463146FEF7D0F9A4
:101EE0002146FEF775F9A86040464946FEF7C2F95B
:101EF00004462B985146FEF76BF90E9F80464146EB
:101F00003846FEF7BDF90C9D064621462846FEF7E9
:101F1000B7F901463046FEF7ADF92C9E2146F06038
:101F20003846FEF7ADF9044628464146FEF7A8F9C3
:101F30002146FEF74DF9B060DDE93501FEF79AF96B
:101F40008046DDE93301FEF795F983464046594660
:101F5000FEF790F940F2F34AC3F6357A5146FEF7A0
:101F60008FF936900446DDE92F10FEF783F9064617
:101F7000DDE92D10FEF77EF9074630463946FEF7BB
:101F800027F95146FEF77CF935900546DDE9370122
:101F9000FEF770F921463890FEF71AF930900446A2
:101FA000DDE93110FEF766F929463790FEF710F9A2
:101FB000014632902046FEF70BF9814640465946CD
:101FC000FEF706F95146FEF75BF9044634903046B9
:101FD0003946FEF74FF95146FEF752F93390054660
:101FE000DDE93B10FEF746F921463C90FEF7F0F89C
:101FF0000646DDE93910FEF73DF929463B90FEF72C
:10200000E7F831460746FEF735F9179D82465146F7
:102010002846FEF735F9DDF83CB0044649465846F7
:10202000FEF72EF901462046FEF724F9DDF804817B
:102030004946C8F80C002846FEF722F904465846DF
:102040005146FEF71DF901462046FEF7C1F8C8F8D3
:10205000080030983299FEF70DF9044630463946AB
:10206000FEF7B6F8169D804641462846FEF708F969
:102070000D9E074621463046FEF702F901463846D6
:10208000FEF7F8F83D9F2146F8602846FEF7F8F87D
:10209000044630464146FEF7F3F801462046FEF777
:1020A00097F8B86038983699FEF7E4F804464190FE
:1020B00037983599FEF7DEF801463D902046FEF749
:1020C00087F807463C983499FEF7D4F882463B9847
:1020D0003399FEF7CFF851468346FEF7CBF8159DAE
:1020E000064631462846FEF7CBF8DDF82C8004463C
:1020F00039464046FEF7C4F801462046FEF7BAF8D6
:10210000DDF8F8903946C9F80C002846FEF7B8F813
:10211000044640463146FEF7B3F801462046FEF736
:1021200057F8C9F8080041983D99DDF82480FEF77A
:10213000A1F8044650465946FEF74AF8139F8346D5
:1021400059463846FEF79CF80A9D06462146284621
:10215000FEF796F801463046FEF78CF83F9E214682
:10216000F0603846FEF78CF8044628465946FEF7DC
:1021700087F801462046FEF72BF8DDF800B1429FB4
:10218000DDE91F351B9AB0601A98189993440744EB
:102190008B45FFF4B7ADDDF81CB0DDF818C005982D
:1021A000089C0BF1010B0CF1080C8345FFF46AADA0
:1021B0000298059C3F2A4FEAC00002903FF6C8AB48
:1021C00043B0BDE8F08F00BFFEE7704772B600BFB6
:1021D000FEE70146002291F82100022808D00420E1
:1021E000886300BF002081F8200000BF01207047F5
:1021F0000868006820F00E000B6818600868006826
:1022000020F001000B68186091F8403001209840E0
:10221000CB6B5860012081F8210000BF002081F8BD
:10222000200000BF1046E2E770B50446002594F890
:102230002100022803D00420A0630125C1E020680A
:10224000006820F00E00216808602068006820F017
:102250000100216808605C492068884252D95A49C7
:1022600078392068884201D1012047E05649643915
:102270002068884201D1102040E05349503920683D
:10228000884201D1801539E04F493C3920688842A5
:1022900001D1801432E04C4928392068884202D1AB
:1022A0004FF480302AE0484914392068884202D12E
:1022B0004FF4801022E044492068884201D1400454
:1022C0001CE042492068884201D1012016E03F49C4
:1022D00014312068884201D110200FE03B49283199
:1022E0002068884201D1801508E038493C312068D7
:1022F000884201D1801401E04FF480303349091F36
:10230000086051E0304978392068884201D10120C5
:1023100047E02D4964392068884201D1102040E00F
:10232000294950392068884201D1801539E0264971
:102330003C392068884201D1801432E02249283992
:102340002068884202D14FF480302AE01E491439B7
:102350002068884202D14FF4801022E01A49206898
:10236000884201D140041CE018492068884201D10C
:10237000012016E0154914312068884201D110204F
:102380000FE0124928312068884201D1801508E009
:102390000E493C312068884201D1801401E04FF49D
:1023A0008030094980394860012084F8210000BF4D
:1023B000002084F8200000BF606B10B12046616BE4
:1023C0008847284670BD0000800002400804024093
:1023D0002DE9F847024600239C467BE14FF00108B7
:1023E00008FA03F4D1F8008008EA0400A0427DD185
:1023F000DFF8F4A2D1F80480A8EB0A09D0453AD05E
:1024000014DCB8F1030F50D009DCB8F1000F31D063
:10241000B8F1010F1CD0B8F1020F49D120E0B8F19A
:10242000110F18D0B8F1120F42D11EE0B9F5881F74
:1024300025D006DCB9F5803F20D0B9F5801F37D113
:102440001AE0B9F5001F18D0B9F5041F30D117E014
:10245000D1F80CC02DE0D1F80C8008F1040C28E074
:10246000D1F80C8008F1080C23E0D1F80C8008F1B9
:102470000C0C1EE000BF00BF00BF00BF00BF00BFCC
:10248000D1F80880B8F1000F02D14FF0040C0BE036
:10249000D1F80880B8F1010F03D14FF0080C146196
:1024A00002E04FF0080C546103E04FF0000C00E034
:1024B00000BF00BFFF2801D8904601E002F10408E8
:1024C0004646FF2802D84FEA830803E0A3F1080834
:1024D0004FEA88084746D6F800804FF00F0909FAFE
:1024E00007F928EA09080CFA07F900E07AE048EA57
:1024F0000908C6F80080D1F8048008F08058B8F1C7
:10250000805F6FD100BFDFF8E481D8F8188048F011
:102510000108DFF8D891C9F81880C846D8F81880A3
:1025200008F00108CDF8008000BF00BF4FEAB938BD
:102530004FEA930958F829504FEA83784FEA1879FF
:102540004FF00F0808FA09F825EA0805DFF8A0811E
:10255000424502D14FF0000824E0DFF8988142455F
:1025600002D14FF001081DE0DFF88C81424502D115
:102570004FF0020816E0DFF88481424502D14FF0A7
:1025800003080FE0DFF87881424502D14FF00408DC
:1025900008E0DFF87081424502D14FF0050801E004
:1025A0004FF006084FEA83794FEA197908FA09F8DB
:1025B00048EA0505DFF850814FEA930948F82950A9
:1025C000D1F8048008F48038B8F5803F0BD1DFF8EB
:1025D0003C81D8F8008048EA0008DFF83091C9F85B
:1025E00000800AE075E0DFF82481D8F8008028EA4E
:1025F0000008DFF81891C9F80080D1F8048008F4C9
:102600000038B8F5003F0ED1DFF8008108F104086A
:10261000D8F8008048EA0008DFF8F09009F10409D2
:10262000C9F800800DE0DFF8E48008F10408D8F86C
:10263000008028EA0008DFF8D49009F10409C9F8FD
:102640000080D1F8048008F48018B8F5801F0ED1FE
:10265000DFF8B88008F10808D8F8008048EA0008D8
:10266000DFF8A89009F10809C9F800800DE0DFF84B
:102670009C8008F10808D8F8008028EA0008DFF8F4
:102680008C9009F10809C9F80080D1F8048008F499
:102690000018B8F5001F0ED1DFF8708008F10C08A3
:1026A000D8F8008048EA0008DFF8609009F10C09CA
:1026B000C9F800800DE0DFF8548008F10C08D8F864
:1026C000008028EA0008DFF8449009F10C09C9F8F5
:1026D00000805B1CD1F8008028FA03F8B8F1000FE5
:1026E0007FF47CAEBDE8F8870000111000100240B6
:1026F00000080140000C014000100140001401409E
:1027000000180140001C0140080001400004014085
:10271000024693680B400BB1012000E00020704797
:1027200001480068704700006C0000200348006802
:102730000349097808440149086070476C0000208B
:102740007400002010B50848006840F010000649E9
:102750000860032000F0A8F8002000F007F800F05F
:102760002BF8002010BD00000020024070B5044688
:102770000E4800784FF47A71B1FBF0F00C4909680B
:10278000B1FBF0F5284600F00BFC08B1012070BD4C
:10279000102C07D200222146501E00F047F80548B1
:1027A000046001E00120F2E70020F0E7740000205F
:1027B000780000207000002008B500BF1148806933
:1027C00040F001000F4988610846806900F001006F
:1027D000009000BF00BF00BF0846C06940F08050B5
:1027E000C8610846C06900F08050009000BF00BF7B
:1027F00000BF0549486820F0E06040F00070486084
:1028000000BF08BD0010024000000140014608461C
:10281000002809DB00F01F0301229A4043099B00B6
:1028200003F1E023C3F8002100BF70472DE9F05FFA
:1028300080460D461646002701F058FE07463946E9
:102840002A46334601F00700C0F1070ABAF1040F27
:1028500002D94FF0040A01E0C0F1070AD14600F1A5
:10286000040ABAF1070F02D24FF0000A01E0A0F10A
:10287000030AD4464FF0010A0AFA09FAAAF1010A3A
:102880000AEA020A0AFA0CFA4FF0010B0BFA0CFBE7
:10289000ABF1010B0BEA030B4AEA0B04214640465D
:1028A00001F02CFEBDE8F09F00BF00F00702064BD0
:1028B00019684FF6FF031940044B0B4343EA02210A
:1028C000014B196000BF70470CED00E00000FA05F5
:1028D00070B504460D460CB9012070BD5A48006819
:1028E00000F00700A8420ED25748006820F0070009
:1028F0002843554908600846006800F00700A842D0
:1029000001D00120E9E7207800F0020002281DD163
:10291000207800F00400042805D14C48406840F4B9
:10292000E0604A494860207800F00800082805D196
:102930004648406840F46050444948604348406815
:1029400020F0F000A168084340494860207800F07A
:10295000010078B36068012806D13C48006800F4A3
:10296000003090B90120B8E76068022806D13748E6
:10297000006800F0007040B90120AEE733480068FD
:1029800000F0020008B90120A7E73048406820F0B5
:102990000300616808432D494860FFF7C1FE064601
:1029A00009E0FFF7BDFE801B41F28831884202D961
:1029B000032092E707E02548406800F00C006168BA
:1029C000B0EB810FEDD12048006800F00700A8426D
:1029D0000ED91D48006820F0070028431A490860F6
:1029E0000846006800F00700A84201D0012074E703
:1029F000207800F00400042807D11448406820F42F
:102A0000E060E168084311494860207800F0080060
:102A1000082808D10D48406820F46050216940EA38
:102A2000C1000A49486000F03FF808494968C1F30D
:102A30000311074A515CC84006490860064800680F
:102A4000FFF794FE002048E70020024000100240FB
:102A50001A62000878000020700000200148006819
:102A6000704700007800002000B5FFF7F7FF044929
:102A70004968C1F30221034A515CC84000BD00000F
:102A8000001002402A62000800B5FFF7E7FF044982
:102A90004968C1F3C221034A515CC84000BD00002F
:102AA000001002402A620008F0B585B00FF26C0CED
:102AB0009CE8E01001A8A0E8E0101CA52D68009596
:102AC00000210022002300240020194D696801F034
:102AD0000C05F5B1042D02D0082D19D101E01548DF
:102AE00019E001ADC1F38346AC5D01F4803555B109
:102AF0000F4D6D68C5F340451DF805200D4D65432C
:102B0000B5FBF2F302E00C4D04FB05F3184602E0BE
:102B100000BF084800BF00BF05B0F0BD02030405B8
:102B2000060708090A0B0C0D0E0F10100102000019
:102B30000010024000127A0000093D00F8B504467A
:102B40000CB90120F8BD207800F00100002878D0F1
:102B5000F848406800F00C0004280CD0F5484068A4
:102B600000F00C00082811D1F248406800F48030D1
:102B7000B0F5803F0AD1EF48006800F4003000282B
:102B80005FD0606800285CD10120DBE700BF60688F
:102B9000B0F5803F06D1E748006840F48030E54951
:102BA000086028E0606858B9E248006820F4803086
:102BB000E04908600846006820F4802008601AE0B8
:102BC0006068B0F5A02F0BD1DA48006840F480208F
:102BD000D84908600846006840F4803008600AE080
:102BE000D448006820F48030D24908600846006864
:102BF00020F48020086000BF606888B1FFF790FD76
:102C0000054606E0FFF78CFD401B642801D9032030
:102C100098E7C848006800F400300028F2D010E0BF
:102C2000FFF77EFD054606E0FFF77AFD401B6428AE
:102C300001D9032086E7BF48006800F4003000286F
:102C4000F2D1207800F00200022857D1B94840683C
:102C500000F00C0050B1B748406800F00C000828A4
:102C600018D1B448406800F4803098B9B148006881
:102C700000F0020020B12069012801D0012061E7A5
:102C8000AC48006820F0F800616940EAC100A94939
:102C9000086033E02069E8B10120A7490860FFF728
:102CA0003FFD054606E0FFF73BFD401B022801D92A
:102CB000032047E79F48006800F002000028F2D098
:102CC0009C48006820F0F800616940EAC100994919
:102CD000086013E0002098490860FFF721FD0546D1
:102CE00006E0FFF71DFD401B022801D9032029E75C
:102CF0009048006800F002000028F2D1207800F02F
:102D0000080008282DD1A069B8B101208B490860BE
:102D1000FFF706FD054606E0FFF702FD401B02280F
:102D200001D903200EE78348406A00F00200002822
:102D3000F2D0012001F02EF813E000207F49086056
:102D4000FFF7EEFC054606E0FFF7EAFC401B022811
:102D500001D90320F6E67748406A00F00200002817
:102D6000F2D1207800F00400042873D100277148C4
:102D7000C06900F0805070B900BF6E48C06940F073
:102D800080506C49C8610846C06900F080500090CE
:102D900000BF00BF01276A48006800F48070B0B926
:102DA0006748006840F4807065490860FFF7B8FC28
:102DB000054606E0FFF7B4FC401B642801D9032058
:102DC000C0E65F48006800F480700028F2D000BFC1
:102DD000E068012806D15748006A40F001005549D3
:102DE000086227E0E06858B95248006A20F0010004
:102DF000504908620846006A20F00400086219E0A1
:102E0000E06805280BD14B48006A40F004004949AE
:102E100008620846006A40F0010008620AE045487E
:102E2000006A20F00100434908620846006A20F069
:102E30000400086200BFE068A0B1FFF771FC05461E
:102E400009E0FFF76DFC401B41F28831884202D94E
:102E5000032077E622E03748006A00F002000028ED
:102E6000EFD012E0FFF75CFC054608E0FFF758FCE6
:102E7000401B41F28831884201D9032062E62D4887
:102E8000006A00F002000028F0D1012F05D1294886
:102E9000C06920F080502749C86100BFE069C8B30D
:102EA0002448406800F00C00082860D0E06902283F
:102EB00048D1002020490866FFF732FC054606E0AD
:102EC000FFF72EFC401B022801D903203AE61948DF
:102ED000006800F000700028F2D1206AB0F5803F51
:102EE00007D11448406820F40030A1680843114914
:102EF0004860D4E9080108430E49496821F4741177
:102F000008430C49486001200B490866FFF708FC9C
:102F1000054607E03DE0FFF703FC401B022801D90E
:102F200003200FE60348006800F000700028F2D08C
:102F30002FE00000001002400000424280044242A4
:102F400000700040002014490866FFF7E9FB0546C1
:102F500006E0FFF7E5FB401B022801D90320F1E55D
:102F60000E48006800F000700028F2D111E0E0691E
:102F7000012800D1E6E50948466806F48031206A58
:102F8000814204D106F47011606A814201D00120AF
:102F9000D8E50020D6E500000000424200100240C3
:102FA00070B504462546681EB0F1807F01D301202C
:102FB0000FE0681E4FF0E02148610F214FF0FF3015
:102FC00001F09CFA00204FF0E021886107200861A1
:102FD000002070BD7047704730B502460B4600BFF9
:102FE00092F83C00012801D1022030BD012082F876
:102FF0003C0000BF022082F83D0010684468106861
:10300000816824F070041868044310684460184D07
:103010001068A8421BD0174D1068A84217D010683E
:10302000B0F1804F13D0144D1068A8420FD0134D4B
:103030001068A8420BD0124D1068A84207D0114D5D
:103040001068A84203D0104D1068A84205D121F0A5
:1030500080015868014310688160012082F83D00BA
:1030600000BF002082F83C0000BF00BFBDE70000A9
:10307000002C0140003401400004004000080040E2
:10308000000C0040004C01400018004010B5044600
:103090000CB9012010BD94F83D0028B9002084F837
:1030A0003C00204600F026F8022084F83D00211D57
:1030B000206800F0C9FE012084F8460000BF84F8B3
:1030C0003E0001213F20015540200155412001557E
:1030D00000BF00BF012084F8420043200155442076
:1030E00001554520015500BF012084F83D00002016
:1030F000D0E7000038B504460D492068884215D154
:1031000000BF0C48C06940F002000A49C861084687
:10311000C06900F00200009000BF00BF002211460D
:103120001D20FFF783FB1D20FFF770FB38BD00005B
:103130000004004000100240014691F83D000128C3
:1031400001D001207047022081F83D000868C06866
:1031500040F001000B68D8601A4B086898421BD0F9
:10316000194B0868984217D00868B0F1804F13D007
:10317000164B086898420FD0154B086898420BD040
:10318000144B0868984207D0134B0868984203D044
:10319000124B086898420CD10868806800F007025A
:1031A000062A0CD00868006840F001000B6818601F
:1031B00005E00868006840F001000B681860002016
:1031C000C0E70000002C0140003401400004004032
:1031D00000080040000C0040004C01400018004076
:1031E0002DE9F04104460D4600BF94F83C0001284B
:1031F00002D10220BDE8F081012084F83C0000BF2C
:10320000022084F83D002068866826F0770626F4C0
:103210007F46206886602868502833D00CDC202840
:1032200050D004DC00284BD0102851D149E0302880
:1032300049D040284CD139E060282DD0702807D0E3
:10324000B0F5805F03D0B0F5005F41D10DE040E004
:10325000D5E902136A68206800F073FE206886686A
:1032600046F077062068866033E0D5E902136A6885
:10327000206800F066FE2068806840F48040216885
:10328000886026E0EA686968206800F04BFF5021FA
:10329000206800F061FE1CE0EA686968206800F0C0
:1032A00054FF6021206800F057FE12E0EA68696868
:1032B000206800F037FF4021206800F04DFE08E054
:1032C00000BF00BF00BF2968206800F045FE00E095
:1032D00000BF00BF012084F83D0000BF002084F83B
:1032E0003C0000BF00BF85E7704710B5044620686A
:1032F0000069C0F34000D8B12068C068C0F3400046
:10330000B0B16FF0020021680861012020772068C9
:10331000806900F0030018B12046FFF7E5FF05E0E3
:10332000204600F0D9F8204600F089F900202077E7
:1033300020680069C0F38000D8B12068C068C0F37D
:103340008000B0B16FF0040021680861022020778E
:103350002068806900F4407018B12046FFF7C4FF70
:1033600005E0204600F0B8F8204600F068F900209B
:10337000207720680069C0F3C000D8B12068C06819
:10338000C0F3C000B0B16FF00800216808610420EC
:1033900020772068C06900F0030018B12046FFF7CD
:1033A000A3FF05E0204600F097F8204600F047F91B
:1033B0000020207720680069C0F30010D8B1206891
:1033C000C068C0F30010B0B16FF010002168086150
:1033D000082020772068C06900F4407018B12046AA
:1033E000FFF782FF05E0204600F076F8204600F067
:1033F00026F9002020772068006900F0010058B10C
:103400002068C06800F0010030B16FF00100216851
:103410000861204600F0EEF920680069C0F3C01092
:1034200058B12068C068C0F3C01030B16FF08000A0
:10343000216808612046FFF7CDFD20680069C0F3D0
:10344000801058B12068C068C0F3801030B16FF0B0
:10345000400021680861204600F0CDF9206800692D
:10346000C0F3401058B12068C068C0F3401030B1BC
:103470006FF02000216808612046FFF7ACFD10BD09
:1034800010B586B004460020029003900490059089
:103490000E492068884216D100BF0D48806940F06F
:1034A00004000B4988610846806900F0040001901F
:1034B00000BF00BF4020029002200390059002A9A7
:1034C0000448FEF785FF06B010BD00000004004070
:1034D0000010024000080140704770B504460D46D8
:1034E000164600BF94F83C00012801D1022070BDAF
:1034F000012084F83C0000BF36B1042E1BD0082EFA
:1035000031D00C2E5ED145E02946206800F02EFD1A
:103510002068806940F0080021688861206880691F
:1035200020F00400216888612068806929690843C7
:103530002168886147E02946206800F04FFD206837
:10354000806940F40060216888612068806920F407
:1035500080602168886120688069296940EA0120CB
:10356000216888612FE02946206800F075FD2068F9
:10357000C06940F008002168C8612068C06920F077
:1035800004002168C8612068C0692969084321686E
:10359000C86118E02946206800F09AFD2068C069DB
:1035A00040F400602168C8612068C06920F4806030
:1035B0002168C8612068C069296940EA0120216842
:1035C000C86100E000BF00BF00BF002084F83C00DD
:1035D00000BF00BF8BE710B504460CB9012010BD39
:1035E00094F83D0028B9002084F83C00204600F003
:1035F00025F8022084F83D00211D206800F024FCFD
:10360000012084F8460000BF84F83E0001213F20DD
:103610000155402001554120015500BF00BF012048
:1036200084F84200432001554420015545200155AE
:1036300000BF012084F83D000020D0E770477047AC
:1036400070B504460D4615B994F83E000BE0042D04
:1036500002D13F20005D06E0082D02D14020005D30
:1036600001E04120005D012801D0012070BD1DB99D
:10367000022084F83E000EE0042D03D102213F20F9
:10368000015508E0082D03D102214020015502E038
:1036900002214120015501222946206800F040FC0A
:1036A00023492068884203D022492068884201D1FA
:1036B000012000E0002028B12068406C40F4004068
:1036C000216848641A49206888421BD0194920683B
:1036D000884217D02068B0F1804F13D01649206877
:1036E00088420FD01549206888420BD014492068C1
:1036F000884207D013492068884203D012492068C5
:1037000088420CD12068806800F00706062E0CD095
:103710002068006840F001002168086005E020682A
:10372000006840F001002168086000209EE700006A
:10373000002C01400034014000040040000800401B
:10374000000C0040004C01400018004030B5044619
:103750000D4600222946206800F0E2FB234920683C
:10376000884203D022492068884201D1012000E02C
:10377000002090B100BF2068006A41F2111108409A
:1037800050B92068006A8910084028B92068406C48
:1037900020F400402168486400BF00BF2068006A30
:1037A00041F21111084050B92068006A89100840A0
:1037B00028B92068006820F001002168086000BF77
:1037C0001DB9012084F83E000EE0042D03D1012133
:1037D0003F20015508E0082D03D10121402001556B
:1037E00002E0012141200155002030BD002C0140A4
:1037F0000034014070477047704770472DE9F84F1B
:103800000446206805682068C668206847694FF04C
:103810000009CA4605F00F09B9F1000F0AD105F0F9
:10382000200038B106F0200020B1204600F0D6FC80
:10383000BDE8F88FB9F1000F71D007F0010018B999
:1038400006F4907000286AD005F0010030B106F44B
:10385000807018B1206C40F00100206405F0040075
:1038600030B107F0010018B1206C40F00200206474
:1038700005F0020030B107F0010018B1206C40F0F3
:103880000400206405F0080048B106F0200010B9DB
:1038900007F0010018B1206C40F008002064206C93
:1038A00068B305F0200028B106F0200010B12046D2
:1038B00000F094FC20684069C0F3801A206C00F08E
:1038C000080010B9BAF1000F22D0204600F05BFCCE
:1038D0002068406900F04000B0B12068406920F0E5
:1038E000400021684861A06B50B15648A16B486305
:1038F000A06BFEF799FC10B1A06B416B88470CE000
:103900002046FFF77AFF08E02046FFF776FF04E045
:103910002046FFF772FF0020206489E7FFE7206B55
:10392000012878D105F01000002874D006F01000AE
:10393000002870D000BF0020009020680068009030
:1039400020684068009000BF00BF2068406900F018
:103950004000C0B3A06B006840681FFA80F8B8F15F
:10396000000F2FD0A08D40452CDDA4F82E80A06B39
:10397000806920281FD02068C06820F480702168EA
:10398000C8602068406920F0010021684861206813
:10399000406920F0400021684861202084F83E0002
:1039A000002020632068C06820F010002168C860F3
:1039B000A06BFEF70EFCA08DE28D801A81B220462E
:1039C000FFF71AFF34E7FFE7A08DE18D401A1FFAD9
:1039D00080F8E08DE8B1B8F1000F1AD02068C06817
:1039E00020F490702168C8602068406920F00100D0
:1039F00021684861202084F83E0000202063206870
:103A0000C06820F010002168C86041462046FFF7DA
:103A1000F3FE0DE7FFE705F0800030B106F080000F
:103A200018B1204600F0CAFC02E705F0400030B1B2
:103A300006F0400018B1204600F0C0FBF8E600BFD9
:103A4000F6E600007341000810B504460CB90120E9
:103A500010BDA06900B100E000BF94F83D0028B996
:103A6000002084F83C00204600F028F8242084F848
:103A70003D002068C06820F400502168C8602046DE
:103A800000F01EFC2068006920F490402168086165
:103A90002068406920F02A00216848612068C068D9
:103AA00040F400502168C86000202064202084F881
:103AB0003D0084F83E000020CAE7000010B586B043
:103AC0000446002002900390049005901E4920684F
:103AD000884236D100BF1D48806940F480401B49B0
:103AE00088610846806900F48040019000BF00BFF3
:103AF00000BF0846806940F004008861084680697C
:103B000000F00400019000BF00BF481502900220A1
:103B100003900320059002A90D48FEF759FC4FF4CD
:103B20008060029000200390049002A90848FEF7EC
:103B30004FFC002211462520FEF778FE2520FEF7D7
:103B400065FE06B010BD00000038014000100240C4
:103B50000008014070472DE9F84F04460E4617460D
:103B600099464FF0000A94F83D0020285AD106B13A
:103B700017B90120BDE8F88F00BF94F83C00012878
:103B800001D10220F6E7012084F83C0000BF0020AC
:103B90002064212084F83D00FEF7C2FD8246A78400
:103BA000E784A068B0F5805F04D1206910B90025D2
:103BB000B04602E035464FF0000800BF002084F810
:103BC0003C0000BF1BE05346002280212046CDF878
:103BD000009000F023FC08B10320CBE745B9B8F80A
:103BE0000000C0F308002168486008F1020803E003
:103BF0002878216848606D1CE08C401EE084E08CD1
:103C00000028E0D15346002240212046CDF8009004
:103C100000F004FC08B10320ACE7202084F83D004C
:103C20000020A7E70220A5E7704700BFFEE70000DD
:103C300000B585B00020019002900390049000BF71
:103C40001848806940F0100016498861084680696C
:103C500000F01000009000BF00BF00BF0846806960
:103C600040F0040088610846806900F0040000907C
:103C700000BF00BF00BF0846806940F02000886197
:103C80000846806900F02000009000BF00BF3F2080
:103C9000019000200290039001A90348FEF798FBD1
:103CA00005B000BD001002400014014000B58DB009
:103CB000002009900A900B900C90079008901C210E
:103CC0006846FCF77AFA2048204908604820486096
:103CD00000211E4881600A21C1600021016180210C
:103CE0008161FFF7D3F908B1FEF770FA4FF4805005
:103CF000099009A91548FFF773FA08B1FEF766FAAB
:103D00001248FFF768FC08B1FEF760FA0020079040
:103D1000089007A90D48FFF75FF908B1FEF756FABA
:103D20006020009005200190002002900490002265
:103D300069460648FFF7D1FB08B1FEF747FA03488A
:103D4000FFF79EFB0DB000BD00040040FC0000200A
:103D500010B50B480B4908604FF4E1304860002172
:103D600008488160C16001610C21416100218161CD
:103D7000C161FFF769FE08B1FEF728FA10BD000027
:103D8000003801404401002000BFFEE700BFFEE70D
:103D90007047000008B508490968C9084FF47A72ED
:103DA000B1FBF2F14143009100BF00BF00994A1EF0
:103DB00000920029F9D108BD78000020704710B5A5
:103DC000FEF7B4FC10BD00B58FB0282105A8FCF7A4
:103DD000F4F914216846FCF7F0F90120059000047D
:103DE0000690002007900120099002200C90C1034A
:103DF0000D914FF4E0110E9105A8FEF79FFE08B15A
:103E0000FEF7E4F90F2000900220019000200290BC
:103E10004FF4806003900020049002216846FEF772
:103E200057FD08B1FEF7D2F90FB000BD7047000092
:103E300010B50120024908600248FFF756FA10BD8C
:103E40001C000020FC00002010B50268294B98429D
:103E50000ED0294B98420BD0B0F1804F08D0274BA1
:103E6000984205D0264B984202D0264B984203D167
:103E700022F070024B681A431E4B984220D01E4B12
:103E800098421DD0B0F1804F1AD01C4B984217D0E9
:103E90001B4B984214D01B4B984211D01A4B98429E
:103EA0000ED01A4B98420BD0194B984208D0194BA0
:103EB000984205D0184B984202D0184B984203D133
:103EC00022F44072CB681A4322F080034C6943EA23
:103ED000040202608B68C3620B688362054B9842E0
:103EE00002D0054B984201D10B6903630123436162
:103EF00010BD0000002C01400034014000040040CF
:103F000000080040000C0040004C014000500140FF
:103F10000054014000180040001C004000200040F8
:103F200030B501F01F05012404FA05F3046A9C432F
:103F30000462046A01F01F0502FA05F52C430462CD
:103F400030BD30B50C46816821F47F4142EA03253B
:103F500025432943816030BD0A46816821F0700104
:103F600042F00703194381607047000030B5056ACD
:103F700025F001050562026A4368846924F0700433
:103F800024F003040D682C4322F002028D682A43BA
:103F9000104DA84200D103E00F4DA84206D100BF4A
:103FA00022F00802CD682A4322F00402094DA842FB
:103FB00002D0094DA84207D123F4807323F4007383
:103FC0004D692B438D692B43436084614D68456384
:103FD000026230BD002C01400034014030B5056A5A
:103FE00025F010050562026A4368846924F4E04400
:103FF00024F440740D6844EA052422F020028D6800
:1040000042EA0512124DA84200D103E0114DA84228
:1040100007D100BF22F08002CD6842EA051222F0EB
:1040200040020B4DA84202D00A4DA84209D123F408
:10403000806323F400634D6943EA85038D6943EA95
:104040008503436084614D688563026230BD000072
:10405000002C01400034014030B5056A25F480751C
:104060000562026A4368C46924F0700424F0030402
:104070000D682C4322F400728D6842EA0522124D2D
:10408000A84200D103E0114DA84207D100BF22F49D
:104090000062CD6842EA052222F480620A4DA842FD
:1040A00002D00A4DA84209D123F4805323F40053CF
:1040B0004D6943EA05138D6943EA05134360C46102
:1040C0004D68C563026230BD002C014000340140E0
:1040D00030B5056A25F480550562036A4468C269F3
:1040E00022F4E04222F440720D6842EA052223F4F1
:1040F00000538D6843EA0533084DA84202D0084DAD
:10410000A84204D124F480444D6944EA85144460F3
:10411000C2614D680564036230BD0000002C01409F
:104120000034014030B50B461446026A056A25F09A
:1041300001050562816921F0F00141EA041122F0D4
:104140000A021A438161026230BD30B50B46144643
:10415000056A25F0100505628169026A21F4704143
:1041600041EA043122F0A00242EA031281610262B4
:1041700030BD70B505466C6A0020E085E0842046BD
:10418000FFF73BFB70BD0168C96821F490710268BC
:10419000D1600168496921F0010102685161016B38
:1041A000012905D10168C96821F010010268D160B8
:1041B000202180F83E1000210163704710B50446AD
:1041C0002068C06820F040002168C860202084F882
:1041D0003D002046FFF728FD002010BDF8B504463D
:1041E00094F83E00222869D1A068B0F5805F0CD118
:1041F000206950B90025A66A20684068C0F308000D
:104200003080A06A801CA06215E0A56A0026A06824
:10421000B0F5805F03D0A06828B9206918B920687C
:104220004068287004E02068406800F07F00287033
:10423000A06A401CA062E08D401E80B2E085A8BB51
:104240002068C06820F020002168C8602068C0682D
:1042500020F480702168C8602068406920F0010067
:1042600021684861202084F83E00206B01281ED17F
:10427000002020632068C06820F010002168C8601A
:104280002068006800F0100010280AD100BF00204C
:10429000009020680068009020684068009000BF8F
:1042A00000BFA18D2046FFF7A7FA03E004E02046F7
:1042B000FFF750FC0020F8BD0020FCE70220FAE7E1
:1042C00070B504462168096921F44051E268114340
:1042D000226811612269A1681143626941EA0205FD
:1042E0002168C96841F20C62914329432268D16078
:1042F0002168496921F44071A26911432268516122
:104300002D4A2168914202D1FEF7BEFB01E0FEF783
:10431000ABFB00EBC00101EB001162689200B1FB46
:10432000F2F100EBC00202EB001263689B00B2FBEB
:10433000F3F26423B2FBF3F202EBC20303EB0212CB
:10434000A1EB8201322202EB01116422B1FBF2F1F6
:1043500001F0F00100EBC00202EB001263689B0069
:10436000B2FBF3F26423B2FBF3F201EB021200EBB7
:10437000C00101EB001163689B00B1FBF3F100EB9E
:10438000C00303EB00136668B600B3FBF6F36426C4
:10439000B3FBF6F303EBC30606EB0313A1EB8301B8
:1043A000322303EB01116423B1FBF3F101F00F01A0
:1043B00011442268916070BD00380140014691F8B7
:1043C0003D00212828D18868B0F5805F0BD10869AD
:1043D00048B90A6A1088C0F308000B685860086A78
:1043E000801C086205E00B6A581C086218780B688C
:1043F0005860C88C401E80B2C88458B90868C0682C
:1044000020F080000B68D8600868C06840F0400069
:104410000B68D860002070470220FCE72DE9F041CE
:1044200004460D4617469846069E21E0701CF8B1DA
:104430002EB1FEF775F9A0EB0800B04218D920683C
:10444000C06820F4D0702168C8602068406920F0FE
:10445000010021684861202084F83D0084F83E0076
:1044600000BF002084F83C0000BF0320BDE8F081BD
:10447000206800682840A84201D1012000E0002007
:10448000B842D3D00020F1E710B50248FFF7B6F9E3
:1044900010BD00004401002000BFFEE70FB4084B30
:1044A00010B504A902AA039800F07CF9044602A9F9
:1044B000002000F00EFD204610BC5DF814FB00004B
:1044C000D34E0008490050EAC12018BF04204A0D0D
:1044D00018BF40F0010040F2FF72B2EB515F08BF1D
:1044E00040F00200012808BF05207047024800681C
:1044F000C0F30220704700000CED00E010B500286A
:1045000004DB0A07130E054A135406E00A07140ECB
:10451000034A00F00F031B1FD45410BD00E400E059
:1045200018ED00E02DE9F0414F1E00EBC7010446F5
:10453000D1E9000115461E4637F006020DD02A4685
:104540003346FCF7D4F97F1E04EBC703D3E90023FD
:10455000FBF706FF37F00602F1D1022F25D0042F1A
:1045600013D0062F18BFBDE8F0812A463346FCF76A
:10457000BEF9D4E90A23FBF7F3FE2A463346FCF7DB
:10458000B6F9D4E90823FBF7EBFE2A463346FCF7DD
:10459000AEF9D4E90623FBF7E3FE2A463346FCF7DF
:1045A000A6F9D4E90423FBF7DBFE2A463346FCF7E1
:1045B0009EF9D4E90223FBF7D3FE2A463346FCF7E3
:1045C00096F9D4E90023BDE8F041FBF7C9BE01220A
:1045D000FCF7FFB940F2013200204FF0E041FCF758
:1045E000F8B90000024A00201107FCF7F2B90000F8
:1045F00001FDFFFF02E008C8121F08C1002AFAD11E
:1046000070477047002001E001C1121F002AFBD152
:10461000704700000149086070470000F800002062
:104620002DE9FF5F82B00021DDE90430020DDDF8E5
:1046300040B0034318D044F61050A2F2FF32424378
:104640001514119801281FD0A5EB0B00401C5FEA40
:10465000000A4FF000064E4FDFF83891B046504642
:1046600015D5CAF1000413E0119801244AA30128CA
:1046700001D16FEA0B010298119AC0E90031C0E93B
:10468000024206B0BDE8F09FCBF10000DFE7044630
:104690000021404A491842EB0450CDE9001012E0D5
:1046A000E00707D032463B4640464946FCF71FF933
:1046B0008046894632463B4610461946FCF717F9B4
:1046C00006460F466410002CEAD1DDE90401DDE95D
:1046D0000023BAF1000F06DAFCF709F942464B460F
:1046E000FCF705F905E0FBF7E2FE42464B46FBF717
:1046F000DEFE04460E460022284BFCF733FA03D8B0
:104700004FF0FF30014607E00022254B204631469E
:10471000FBF726FEFCF7F5F9102409E0002C0ADB74
:104720000A220023FBF7CEFF039B30321A55641E8A
:1047300050EA0102F2D1641C039AC4F1110314443B
:10474000119A012A03D0012208430DD10AE008433F
:1047500004D000204FF0110B119072E7A3EB0B0572
:104760006D1E0DE05B4504DD4FF0000205F1010513
:1047700004E003DA4FF00002A5F10105002AECD0B5
:1047800002981199C0E90231C0E9004579E70000BB
:10479000000014400000F03F300000000000F04333
:1047A0000000E03F2DE9FF4F95B09B468946064645
:1047B00000250FE2252877D100242746F84A012159
:1047C000059400E0044316F8013F203B01FA03F092
:1047D0001042F7D130782A2811D06FF02F033078AB
:1047E000A0F13002092A16D8059A44F0020402EB1F
:1047F000820203EB42021044761C0590EFE759F861
:10480000042B0592002A03DA504244F40054059028
:1048100044F00204761C30782E2816D116F8010FC9
:1048200044F004042A280DD06FF02F023078A0F154
:104830003003092B09D807EB870302EB4303C718A2
:10484000761CF3E759F8047B761C30786C280FD07F
:1048500006DC4C2817D068280DD06A2814D104E053
:10486000742810D07A280FD10DE044F400140AE027
:1048700044F4801401E044F440147278824202D17E
:1048800004F58014761C761C307866280BD013DC77
:10489000582877D009DC002875D04528F6D046285E
:1048A000F4D047281AD19DE118E0632835D0642858
:1048B00079D0652812D195E1702873D008DC67287B
:1048C000F1D069286FD06E280DD06F2806D1B5E0E1
:1048D00073282CD0752875D0782874D05A4617992B
:1048E00090476D1C75E1C4F30250022809D00328DB
:1048F0000DD0D9F8001004280DD00D6009F104097D
:1049000067E1D9F80010EA17C1E90052F6E7D9F8D3
:1049100000100D80F2E70D70F0E719F8041B8DF818
:10492000001000208DF80100EA46012003E059F84C
:1049300004AB4FF0FF3061074FF0000102D40DE0EF
:1049400008F101018846B9420FDA8045F8DB1AF810
:1049500008100029F4D108E008F1010188468142DD
:10496000FADB1AF808100029F6D105985B46A0EB8F
:10497000080721463846179A00F094FA284400EBBD
:10498000080507E04DE029E10DE01AF8010B5A4651
:1049900017999047B8F10108F7D25B46214638468F
:1049A000179A13E142E00A220092C4F302524FF038
:1049B000000A022A08D059F804CB032A4FEAEC7106
:1049C0000AD00DE029E02AE009F1070121F00702F1
:1049D000F2E802C1914609E00FFA8CFC4FEAEC7153
:1049E000042A03D14FFA8CFC4FEAEC71002907DA54
:1049F0000A460021DCF1000C61EB02012D2202E0ED
:104A0000220504D52B228DF80420012203E0E207C1
:104A100001D02022F7E7904659E00A2102E0102257
:104A20000DE010214FF0000A00910BE010224FF032
:104A3000000A44F004040827009203E008224FF023
:104A4000000A0092C4F30252022A05D059F804CB9E
:104A50000021032A08D009E009F1070121F007022B
:104A6000F2E802C1914605E01FFA8CFC042A01D14C
:104A70000CF0FF0C4FF00008220728D5702806D054
:104A8000009B83F0100353EA0A0305D00EE0402296
:104A90008DF80420012208E05CEA010206D03022F1
:104AA0008DF804208DF8050002229046009B83F0CB
:104AB000080353EA0A030AD15CEA010201D1620742
:104AC00005D530228DF804204FF001087F1E5828AC
:104AD00004D034A003900EA802900DE036A0F9E7B0
:104AE00053466046009AFBF7EDFD84460398825CCE
:104AF0000298401E029002705CEA0100F0D1029818
:104B000006A9081A00F1200A600702D524F48034AF
:104B100000E00127574502DDA7EB0A0000E0002076
:104B200000EB0A01009005984144401A0590E0030B
:104B300006D45B462146179A059800F0B3F9054460
:104B4000002706E001A85A46C05D179990476D1CE2
:104B50007F1C4745F6DBE0030CD55B462146179AE0
:104B6000059800F09FF9054404E030205A46179953
:104B700090476D1C0099481E00900029F5DC08E064
:104B8000029802995A460078491C02911799904759
:104B90006D1CBAF10001AAF1010AF1DC65E1000027
:104BA0000928010030313233343536373839616203
:104BB00063646566000000003031323334353637C7
:104BC00038394142434445460000000000F058F99E
:104BD0000544761C307800287FF4ECAD19B02846E7
:104BE000BDE8F08F620700D4062709F1070222F022
:104BF000070CFCE80223E14603F000485FEA080CDA
:104C000002D00FF2702C0DE05FEA045C02D50FF2C7
:104C1000682C07E05FEAC47C02D00FF2602C01E050
:104C2000AFF2700C4FF0FF3823F00043CDF850C0C6
:104C300065280CD006DC452809D046281DD0472819
:104C40003DD13DE0662818D067287ED138E00021AC
:104C5000112F01DB112000E0781CCDE9000106A92D
:104C60000EA8FFF7DDFCDDE90F010E9A039100218C
:104C7000009207F1010A04914DE04FF000400097C7
:104C8000CDE9011006A90EA8FFF7CAFCDDE90F0265
:104C900003920E9B11990022DDF80CA00093049260
:104CA00011B9791C00EB010AB7EB0A0004D4C0F17A
:104CB000FF3007F1010A0490AAEB0700019044E0DD
:104CC000012F00DA01270021112F01DD112000E062
:104CD0003846CDE9000106A90EA8FFF7A1FCDDE9E1
:104CE0000F010E9A0391002104910092BA46210708
:104CF0000CD40399514500DA8A46BAF1010F05DD5B
:104D0000009AAAF10101515C302908D0B84202DAB8
:104D100010F1040F06DA0121CDE9011015E0AAF126
:104D20000101E9E7002805DC049901440491AAEB9C
:104D3000000102E0411C514500DD8A460499401AF9
:104D4000401C01904FF000400290200704D40198CD
:104D5000504501DBCDF8048000208DF84F0002980B
:104D60000DF14F07B0F1004F25D02B200E90029887
:104D70004FF0020800280CDA404202902D200E90DD
:104D800007E00A210298FBF787FC3031029007F810
:104D9000011DB8F10001A8F10108F2DC0298002819
:104DA000EFD1791E0E980870307800F0200040F0A6
:104DB000450007F8020D12A8C01B00F1070814985F
:104DC000007800B1012000EB0A01019801EBE071CD
:104DD00005984144401A401E0590E00306D45B4606
:104DE0002146179A059800F05DF80544149800785C
:104DF00018B15A46179990476D1CE00324D55B46BD
:104E00002146179A059800F04DF805441CE00498D7
:104E1000002807DBDDE90301884203DD0098405CE0
:104E2000179901E0179930205A469047049805F1E8
:104E30000105401C04900198401E019004D12E20D1
:104E40005A46179990476D1CBAF10001AAF1010A60
:104E5000DDDC05E017F8010B5A46179990476D1CE9
:104E6000B8F10001A8F10108F4DC5B462146179A6D
:104E70000598ABE62D0000002B000000200000008C
:104E80002DE9F041044600251E461746880404D447
:104E900005E039462020B0476D1C641EF9D5284630
:104EA000BDE8F0812DE9F041044600251E469046FC
:104EB000C80301D5302700E02027880404D505E089
:104EC00041463846B0476D1C641EF9D52846BDE8FA
:104ED000F0810A68531C0B60107070472DE9FF4F7A
:104EE00089B082468B46DDE9177819980068012859
:104EF00066D0D8F80000FBF773FB0790D8F80400E1
:104F0000FBF76EFB0646D8F808000690002412E076
:104F100000250CE05BF8241005FB06425AF822003D
:104F2000FBF7A8F905FB064147F821006D1C07981F
:104F30008542EFDB641CB442EADB00243DE00B99C0
:104F400051F824000699FBF743F90190FBF761FB48
:104F5000CDE9020101F025F9CDE90401FBF76CFB75
:104F60008146002525E005FB064157F8210049460A
:104F7000FBF7B8F905FB064147F82100169A52F8ED
:104F8000241005FB064257F82200FBF779F905FBD0
:104F9000064147F821000C9A52F8241005FB0642FE
:104FA00057F82200FBF714F905FB064147F82100EA
:104FB0006D1C07988542D6DB641CB442BFDB00BF82
:104FC0000DB0BDE8F08F00002DE9FF4F9BB0299C8C
:104FD0002A98006801287DD060681A90A06819900E
:104FE000E068189020691790A0691690D4F81CB05A
:104FF000206A1590606A1490A06A1390E06A12907B
:10500000206B1190606B1090A06B0F90E06B0E9076
:105010002022574902A8FBF7B7F81A98039019986D
:10502000049018980590139919980144129808440F
:105030000690119918980144109808440790139805
:1050400008901198099013991998014412980844EE
:105050000B90119918980144109808440A901398DD
:1050600028B9129818B9119808B9109830B102AA45
:105070002A9BDDE91B0100F0BDFF01E01B981C909D
:1050800000256EE0002668E00F9906FB01F00C9009
:1050900000275EE00E9907FB01F00D9000200190C3
:1050A000804640E0DDF8309036E0DDF834A02DE0B9
:1050B0001A9B05FB03F2169B5A4302FB0BF208FBFB
:1050C00003F303FB0B230C9AA9EB020202FB0B3345
:1050D0000D9A00E049E0AAEB020213441D9A52F82F
:1050E00023100B9B08FB03F20A9B5A4309FB032284
:1050F00002EB0A031C9A52F82300FBF7C1F8009058
:105100000199FBF765F801900AF1010A0D985844DE
:105110005045CDDC09F1010916990C980844484521
:10512000C3DC08F101081A988045BBDB1E9850F8D3
:1051300025100198FBF74CF80146159A05FB02F083
:10514000149A504306FB0200C219289840F8221016
:105150007F1C149887429DDB761C1598864293DB52
:105160006D1C179885428DDB00BF1FB0BDE8F08F26
:1051700038F705087FB505460C4600202060224818
:105180002249234B234ACDE90104009122492846B4
:10519000FFF71AFF1C4823461C49026C084600F022
:1051A0007FFF194844301C4B1C4A1D49CDE90004BF
:1051B000164800F085F9144854301749194A1A4B1B
:1051C000CDE90204CDE90021184A19491248FFF738
:1051D00085FE0D4823461049426E084600F060FFE8
:1051E00009486830094B134A1349CDE900040A48BD
:1051F00000F066F9044823460449826F084600F02F
:105200006FFF024804B070BD7C00002028B400206D
:105210003879000840620008F07900204CC4050885
:105220004C79000888C80508C4CC05083CD5050899
:1052300000D105081CF7050878D905082DE9F04DBF
:10524000894BCE0F21F0004784B005460C469F42A3
:1052500030D38648874211D3C7F31300284305D0C3
:1052600004B02846BDE8F04DFFF7B1B9002E1ABFD3
:1052700000200146284604B0BDE8F08D7C4A28464F
:10528000FBF770FC07D20220FFF7C4F904B0BDE8B9
:10529000F04DFFF79FB9774A774B28462146FBF739
:1052A00049FC07D20220FFF7B5F904B0BDE8F04D84
:1052B000FFF798B97148B84248D27148874215D271
:1052C0007048784400EBC6002146D0E90023284608
:1052D000FBF7E7F8CDE900016B48784400EBC60026
:1052E000D0E900ABC6F10100861B26E0674A684B97
:1052F00028462146FBF7FBFA664A7A4402EBC603CE
:10530000D3E90023FBF72CF8FBF7DCFB0646FBF7A1
:10531000C8FB07468846604A604BFBF7E8FA2A4616
:105320002346FBF7C1F8CDE900015D4A5D4B3846E5
:105330004146FBF7DCFA82468B46DDE90001524626
:105340005B46FBF7AEF805460C4618E05648874228
:1053500014D2564A564B28462146FBF701F8554EC3
:1053600000223346FBF7FEFB08D204B03346284642
:105370002146BDE8F04D0022FAF7F2BF00262A468A
:10538000234610461946FBF7B2FA804602464A48C1
:105390000F460B4605217844FFF7C4F842463B46CA
:1053A000FBF7A5FA2A462346FBF77EF80746884610
:1053B000E6B302460B4600204FF08041FBF771F840
:1053C000CDE902013A46434628462146FBF78FFACB
:1053D000DDE90223FBF76BF852465B46FBF764F806
:1053E000DDE90023FBF75DF80022324BFBF75CF8A8
:1053F0006FF47F729642A2BF01EB065104B0BDE884
:10540000F08D4FF07A5202EB065211442B4AFBF713
:10541000E0FA04460D46FFF755F8042808BFFFF7E9
:10542000E1F8204604B02946BDE8F08DFFE70022F0
:105430004FF08043FBF735F882460E463A46434626
:1054400028462146FBF753FA52463346FBF72FF81E
:105450002A462346FBF725F804B00022BDE8F04DAC
:10546000144BFBF721B80000422E86400000F07F6D
:10547000EF39FAFE51302DD5104987C0422ED63F64
:10548000B2A2F03FA2A405009AA40500FE822B65FB
:105490004715F73F5AA405000000E0FE422EE63F04
:1054A000763C7935EF39EA3D0000303E9C75008846
:1054B0003CE4377E0000F03FEEA3050018FCFFFF40
:1054C0002DE9FE4F06460F4690469946DDF830A07E
:1054D0000D980068012828D0DAF804000290DAF864
:1054E0000CB00020019000241CE000200190002559
:1054F0000DE005FB0B4257F8221056F82500FAF78D
:10550000BFFE00900199FAF763FE01906D1C0298AE
:105510008542EEDB58F824100198FAF759FE49F855
:105520002400641C5C45E0DB00BFBDE8FE8F00008A
:105530001CB5FDF707F9FEF746FCFEF779FBFEF711
:10554000B5FBFEF705FCF748FDF7F6FD0EE301217C
:10555000F548FDF7DDF888BB0221F348FDF7D8F8E0
:1055600060BB0421F048FDF7D3F838BB0821EE48B2
:10557000FDF7CEF810BB1021EB48FDF7C9F8E8B9EC
:105580002021E948FDF7C4F8C0B9E8480068A8B987
:105590000120E64908600020E5490860E549086007
:1055A000E5490860E5490860E5490860E5490860A3
:1055B000E54908600021DB48FEF742F8E34800684F
:1055C000002870D0D94800680028FAD00020DF49B0
:1055D0000860DF48006818286DDADA480068400083
:1055E000D8490860D64800684000D5490860D348CB
:1055F00000684000D1490860CF4800684000CE49AB
:105600000860CC4800684000CA490860C848006883
:105610004000C74908600121C348FDF779F8012817
:1056200000D100E00020C74909680844C549086066
:105630000221BD48FDF76CF8012800D100E00020F0
:10564000BF4909680844BE4908600421B648FDF70F
:105650005FF8012800D100E00020B849096808443B
:10566000B64908600821B048FDF752F8012800D17A
:1056700000E00020B04909680844AF4908601021E3
:10568000A948FDF745F8012800D100E00020A9490C
:1056900009680844A74908602021A348FDF738F8A5
:1056A000012801D101E0DEE10020A1490968084498
:1056B0009F490860D2E1A6480068182842D1A14855
:1056C0000068C0F3C050000640429E490968084384
:1056D0009C4908609A480068C0F3C05000064042E8
:1056E0009749096808439649086094480068C0F3E0
:1056F000C050000640429149096808438F4908603C
:105700008D480068C0F3C050000640428A490968CD
:1057100008438949086087480068C0F3C050000604
:10572000404284490968084382490860804800680B
:10573000C0F3C050000640427D49096808437C49D7
:1057400008608BE1824800681A28B3D100207749AD
:1057500008607F4908607B4801687E487E4A12687D
:1057600040F82210764801687C487B4A126840F86D
:105770002210724801687A48774A126840F822106D
:105780006D4801687748744A126840F822106948E9
:1057900001687548704A126840F822106448016830
:1057A00072486D4A126840F8221000215D48FDF7EA
:1057B000CDFF69480068401C6749086008460068DA
:1057C000B0F5A07F01DA012000E0002062490968FD
:1057D0004843614908606648006800286AD1654806
:1057E0000068012866D16448006890B900206349C8
:1057F00008600AE000206249604A126841F822000D
:105800005E480068401C5D4908605C4800680628E6
:10581000F0DB5B4800684B49096808445849086058
:1058200008464068464909680844554948600846A2
:105830008068424909680844514988600846C06840
:105840003D49096808444E49C8600846006939491D
:10585000096808444A4908610846406934490968AA
:1058600008444749486144480068401C4249086070
:1058700008460068FF281DDD0020404908600FE051
:105880003F483E49096850F8210000123C493B4A14
:10589000126841F8220039480068401C3749086006
:1058A000364800680628EBDB0120314908600020FB
:1058B000314908602E480068002832D0304D2D68EC
:1058C000204E3668741B002C01DB254600E0654243
:1058D00042F21076B54268DC294D6D68184E366884
:1058E000731B002B01DB1D4600E05D4242F2107687
:1058F000B5425ADC224DAD68104E3668721B002A44
:1059000001DB154600E0554242F21076B5424CDC10
:105910001B4DED68084E3668711B002932DB0D46C1
:1059200031E09BE0FC000020001401401800002042
:1059300014000020100000200C00002008000020AF
:105940000400002000000020240400401C0000206F
:10595000200000208801002024000020880600206C
:10596000880B00208810002088150020881A00204D
:1059700028000020400000202C00002030000020E3
:10598000881F00204D4242F21076B5420DDCFE4DDC
:105990006D69FE4E3668701B002801DB054600E08D
:1059A000454242F21076B54211DDF94D2D6875B9C8
:1059B000F8480068401CF7490860084600681E283F
:1059C00001DD012000E00020F149086002E0002034
:1059D000F0490860F0480068B0F5FA7F2CD1EC4837
:1059E000006848B30020EB490860E9490860EB48CB
:1059F00000687738EA490860E8480068C830E64936
:105A00000860E7480068C00F00EB8000E4490968BF
:105A100001EB8010E2490860DF480068B0F5A07F24
:105A200001DB012000E0002000EB8000DA4909687A
:105A3000A1EB8010D8490860D7480068D7490968A9
:105A400088420BD14FF4FA70D34908600120D54940
:105A500008600020D4490860D4490860D448006830
:105A6000401CD3490860CF48006800287ED0002041
:105A7000C7490860CA480068CE4908603AE0CD4886
:105A80000068B0F5A07F01DB012000E0002000EB02
:105A90008000C8490968A1EB8010C7490860002050
:105AA000C64908601DE0C548006800EB8000C44995
:105AB00001EB0020C049096850F82100BF4909687E
:105AC00001EB8101BF4A02EB0121BA4A1268B44BD3
:105AD0001B68D21A41F82200B8480068401CB74938
